{
  "contractName": "ClassBallot",
  "abi": [
    {
      "constant": true,
      "inputs": [
        {
          "name": "",
          "type": "uint256"
        }
      ],
      "name": "winningName",
      "outputs": [
        {
          "name": "",
          "type": "string"
        }
      ],
      "payable": false,
      "stateMutability": "view",
      "type": "function"
    },
    {
      "constant": true,
      "inputs": [
        {
          "name": "",
          "type": "uint256"
        }
      ],
      "name": "winningCandidates",
      "outputs": [
        {
          "name": "",
          "type": "uint256"
        }
      ],
      "payable": false,
      "stateMutability": "view",
      "type": "function"
    },
    {
      "constant": true,
      "inputs": [
        {
          "name": "",
          "type": "uint256"
        }
      ],
      "name": "Candidates",
      "outputs": [
        {
          "name": "name",
          "type": "string"
        },
        {
          "name": "voteCount",
          "type": "uint256"
        },
        {
          "name": "speak",
          "type": "string"
        }
      ],
      "payable": false,
      "stateMutability": "view",
      "type": "function"
    },
    {
      "constant": true,
      "inputs": [
        {
          "name": "",
          "type": "uint256"
        }
      ],
      "name": "addresss",
      "outputs": [
        {
          "name": "",
          "type": "address"
        }
      ],
      "payable": false,
      "stateMutability": "view",
      "type": "function"
    },
    {
      "constant": true,
      "inputs": [
        {
          "name": "",
          "type": "address"
        }
      ],
      "name": "voters",
      "outputs": [
        {
          "name": "voted",
          "type": "bool"
        },
        {
          "name": "authorize",
          "type": "bool"
        },
        {
          "name": "vote",
          "type": "uint256"
        }
      ],
      "payable": false,
      "stateMutability": "view",
      "type": "function"
    },
    {
      "constant": true,
      "inputs": [],
      "name": "host",
      "outputs": [
        {
          "name": "",
          "type": "address"
        }
      ],
      "payable": false,
      "stateMutability": "view",
      "type": "function"
    },
    {
      "inputs": [],
      "payable": false,
      "stateMutability": "nonpayable",
      "type": "constructor"
    },
    {
      "constant": false,
      "inputs": [
        {
          "name": "CandidateName",
          "type": "string"
        },
        {
          "name": "hisspeak",
          "type": "string"
        }
      ],
      "name": "addCandidate",
      "outputs": [],
      "payable": false,
      "stateMutability": "nonpayable",
      "type": "function"
    },
    {
      "constant": false,
      "inputs": [
        {
          "name": "voter",
          "type": "address"
        }
      ],
      "name": "giveRightToVote",
      "outputs": [],
      "payable": false,
      "stateMutability": "nonpayable",
      "type": "function"
    },
    {
      "constant": false,
      "inputs": [
        {
          "name": "candidate",
          "type": "uint256"
        }
      ],
      "name": "vote",
      "outputs": [],
      "payable": false,
      "stateMutability": "nonpayable",
      "type": "function"
    },
    {
      "constant": false,
      "inputs": [],
      "name": "winningCandidate",
      "outputs": [],
      "payable": false,
      "stateMutability": "nonpayable",
      "type": "function"
    },
    {
      "constant": false,
      "inputs": [
        {
          "name": "newspeak",
          "type": "string"
        }
      ],
      "name": "winnersSpeak",
      "outputs": [],
      "payable": false,
      "stateMutability": "nonpayable",
      "type": "function"
    }
  ],
  "bytecode": "0x608060405234801561001057600080fd5b50336000806101000a81548173ffffffffffffffffffffffffffffffffffffffff021916908373ffffffffffffffffffffffffffffffffffffffff1602179055506114cc806100606000396000f3006080604052600436106100af576000357c0100000000000000000000000000000000000000000000000000000000900463ffffffff1680630121b93f146100b45780630e794b87146100e15780631fe447d71461018757806326541b56146101c8578063290e9212146102775780638fb1c318146103905780639e7b8d61146103fd578063a3ec138d14610440578063d28178d7146104ad578063f437bc59146104c4578063fa11dffb1461051b575b600080fd5b3480156100c057600080fd5b506100df60048036038101908080359060200190929190505050610584565b005b3480156100ed57600080fd5b5061010c6004803603810190808035906020019092919050505061072d565b6040518080602001828103825283818151815260200191508051906020019080838360005b8381101561014c578082015181840152602081019050610131565b50505050905090810190601f1680156101795780820380516001836020036101000a031916815260200191505b509250505060405180910390f35b34801561019357600080fd5b506101b2600480360381019080803590602001909291905050506107e8565b6040518082815260200191505060405180910390f35b3480156101d457600080fd5b50610275600480360381019080803590602001908201803590602001908080601f0160208091040260200160405190810160405280939291908181526020018383808284378201915050505050509192919290803590602001908201803590602001908080601f016020809104026020016040519081016040528093929190818152602001838380828437820191505050505050919291929050505061080b565b005b34801561028357600080fd5b506102a260048036038101908080359060200190929190505050610964565b604051808060200184815260200180602001838103835286818151815260200191508051906020019080838360005b838110156102ec5780820151818401526020810190506102d1565b50505050905090810190601f1680156103195780820380516001836020036101000a031916815260200191505b50838103825284818151815260200191508051906020019080838360005b83811015610352578082015181840152602081019050610337565b50505050905090810190601f16801561037f5780820380516001836020036101000a031916815260200191505b509550505050505060405180910390f35b34801561039c57600080fd5b506103bb60048036038101908080359060200190929190505050610acd565b604051808273ffffffffffffffffffffffffffffffffffffffff1673ffffffffffffffffffffffffffffffffffffffff16815260200191505060405180910390f35b34801561040957600080fd5b5061043e600480360381019080803573ffffffffffffffffffffffffffffffffffffffff169060200190929190505050610b0b565b005b34801561044c57600080fd5b50610481600480360381019080803573ffffffffffffffffffffffffffffffffffffffff169060200190929190505050610e1c565b604051808415151515815260200183151515158152602001828152602001935050505060405180910390f35b3480156104b957600080fd5b506104c2610e60565b005b3480156104d057600080fd5b506104d9611097565b604051808273ffffffffffffffffffffffffffffffffffffffff1673ffffffffffffffffffffffffffffffffffffffff16815260200191505060405180910390f35b34801561052757600080fd5b50610582600480360381019080803590602001908201803590602001908080601f01602080910402602001604051908101604052809392919081815260200183838082843782019150505050505091929192905050506110bc565b005b6000600160003373ffffffffffffffffffffffffffffffffffffffff1673ffffffffffffffffffffffffffffffffffffffff16815260200190815260200160002090508060000160009054906101000a900460ff1615151561064e576040517f08c379a00000000000000000000000000000000000000000000000000000000081526004018080602001828103825260158152602001807f436c61737342616c6c6f74203734206661696c6564000000000000000000000081525060200191505060405180910390fd5b8060000160019054906101000a900460ff1615156106d4576040517f08c379a00000000000000000000000000000000000000000000000000000000081526004018080602001828103825260158152602001807f436c61737342616c6c6f74203736206661696c6564000000000000000000000081525060200191505060405180910390fd5b60018160000160006101000a81548160ff021916908315150217905550818160010181905550600160038381548110151561070b57fe5b9060005260206000209060030201600101600082825401925050819055505050565b60058181548110151561073c57fe5b906000526020600020016000915090508054600181600116156101000203166002900480601f0160208091040260200160405190810160405280929190818152602001828054600181600116156101000203166002900480156107e05780601f106107b5576101008083540402835291602001916107e0565b820191906000526020600020905b8154815290600101906020018083116107c357829003601f168201915b505050505081565b6004818154811015156107f757fe5b906000526020600020016000915090505481565b6000809054906101000a900473ffffffffffffffffffffffffffffffffffffffff1673ffffffffffffffffffffffffffffffffffffffff163373ffffffffffffffffffffffffffffffffffffffff161415156108cf576040517f08c379a00000000000000000000000000000000000000000000000000000000081526004018080602001828103825260158152602001807f436c61737342616c6c6f74203530206661696c6564000000000000000000000081525060200191505060405180910390fd5b600360606040519081016040528084815260200160008152602001838152509080600181540180825580915050906001820390600052602060002090600302016000909192909190915060008201518160000190805190602001906109359291906112a0565b5060208201518160010155604082015181600201908051906020019061095c9291906112a0565b505050505050565b60038181548110151561097357fe5b9060005260206000209060030201600091509050806000018054600181600116156101000203166002900480601f016020809104026020016040519081016040528092919081815260200182805460018160011615610100020316600290048015610a1f5780601f106109f457610100808354040283529160200191610a1f565b820191906000526020600020905b815481529060010190602001808311610a0257829003601f168201915b505050505090806001015490806002018054600181600116156101000203166002900480601f016020809104026020016040519081016040528092919081815260200182805460018160011615610100020316600290048015610ac35780601f10610a9857610100808354040283529160200191610ac3565b820191906000526020600020905b815481529060010190602001808311610aa657829003601f168201915b5050505050905083565b600281815481101515610adc57fe5b906000526020600020016000915054906101000a900473ffffffffffffffffffffffffffffffffffffffff1681565b6000809054906101000a900473ffffffffffffffffffffffffffffffffffffffff1673ffffffffffffffffffffffffffffffffffffffff163373ffffffffffffffffffffffffffffffffffffffff16141515610bcf576040517f08c379a00000000000000000000000000000000000000000000000000000000081526004018080602001828103825260158152602001807f436c61737342616c6c6f74203632206661696c6564000000000000000000000081525060200191505060405180910390fd5b600160008273ffffffffffffffffffffffffffffffffffffffff1673ffffffffffffffffffffffffffffffffffffffff16815260200190815260200160002060000160009054906101000a900460ff16151515610c94576040517f08c379a00000000000000000000000000000000000000000000000000000000081526004018080602001828103825260158152602001807f436c61737342616c6c6f74203633206661696c6564000000000000000000000081525060200191505060405180910390fd5b600160008273ffffffffffffffffffffffffffffffffffffffff1673ffffffffffffffffffffffffffffffffffffffff16815260200190815260200160002060000160019054906101000a900460ff16151515610d59576040517f08c379a00000000000000000000000000000000000000000000000000000000081526004018080602001828103825260158152602001807f436c61737342616c6c6f74203634206661696c6564000000000000000000000081525060200191505060405180910390fd5b60028190806001815401808255809150509060018203906000526020600020016000909192909190916101000a81548173ffffffffffffffffffffffffffffffffffffffff021916908373ffffffffffffffffffffffffffffffffffffffff1602179055505060018060008373ffffffffffffffffffffffffffffffffffffffff1673ffffffffffffffffffffffffffffffffffffffff16815260200190815260200160002060000160016101000a81548160ff02191690831515021790555050565b60016020528060005260406000206000915090508060000160009054906101000a900460ff16908060000160019054906101000a900460ff16908060010154905083565b6000806000806000809450600380549050935060046000610e819190611320565b600092505b83831015610ee75784600384815481101515610e9e57fe5b9060005260206000209060030201600101541115610eda57600383815481101515610ec557fe5b90600052602060002090600302016001015494505b8280600101935050610e86565b600091505b83821015610fc05784600383815481101515610f0457fe5b9060005260206000209060030201600101541415610fb35760048290806001815401808255809150509060018203906000526020600020016000909192909190915055506005600383815481101515610f5957fe5b90600052602060002090600302016000019080600181540180825580915050906001820390600052602060002001600090919290919091509080546001816001161561010002031660029004610fb0929190611341565b50505b8180600101925050610eec565b6001600580549050111561109057600090505b60028054905081101561108157600060016000600284815481101515610ff557fe5b9060005260206000200160009054906101000a900473ffffffffffffffffffffffffffffffffffffffff1673ffffffffffffffffffffffffffffffffffffffff1673ffffffffffffffffffffffffffffffffffffffff16815260200190815260200160002060000160006101000a81548160ff0219169083151502179055508080600101915050610fd3565b6003600061108f91906113c8565b5b5050505050565b6000809054906101000a900473ffffffffffffffffffffffffffffffffffffffff1681565b6000600160048054905011151561113b576040517f08c379a00000000000000000000000000000000000000000000000000000000081526004018080602001828103825260168152602001807f436c61737342616c6c6f7420313131206661696c65640000000000000000000081525060200191505060405180910390fd5b600090505b60058054905081101561129c57600360606040519081016040528060058481548110151561116a57fe5b906000526020600020018054600181600116156101000203166002900480601f0160208091040260200160405190810160405280929190818152602001828054600181600116156101000203166002900480156112085780601f106111dd57610100808354040283529160200191611208565b820191906000526020600020905b8154815290600101906020018083116111eb57829003601f168201915b5050505050815260200160008152602001848152509080600181540180825580915050906001820390600052602060002090600302016000909192909190915060008201518160000190805190602001906112649291906112a0565b5060208201518160010155604082015181600201908051906020019061128b9291906112a0565b505050508080600101915050611140565b5050565b828054600181600116156101000203166002900490600052602060002090601f016020900481019282601f106112e157805160ff191683800117855561130f565b8280016001018555821561130f579182015b8281111561130e5782518255916020019190600101906112f3565b5b50905061131c91906113ec565b5090565b508054600082559060005260206000209081019061133e91906113ec565b50565b828054600181600116156101000203166002900490600052602060002090601f016020900481019282601f1061137a57805485556113b7565b828001600101855582156113b757600052602060002091601f016020900482015b828111156113b657825482559160010191906001019061139b565b5b5090506113c491906113ec565b5090565b50805460008255600302906000526020600020908101906113e99190611411565b50565b61140e91905b8082111561140a5760008160009055506001016113f2565b5090565b90565b61145591905b8082111561145157600080820160006114309190611458565b60018201600090556002820160006114489190611458565b50600301611417565b5090565b90565b50805460018160011615610100020316600290046000825580601f1061147e575061149d565b601f01602090049060005260206000209081019061149c91906113ec565b5b505600a165627a7a72305820ff00e1779a69faa7ecc742f9c3e8bc6a50ccfd49d27011ea7204b66bc2eaedad0029",
  "source": "pragma solidity ^0.4.17;\r\n\r\n// 班级投票系统\r\ncontract ClassBallot {\r\n\r\n    // 主持人\r\n    address public host;\r\n\r\n    // 候选人\r\n    struct Candidate {\r\n        string name;   // name\r\n        uint voteCount; // votes number\r\n        string speak;\r\n    }\r\n\r\n    // 投票\r\n    struct Voter {\r\n        bool voted;  // 是否投过票\r\n        bool authorize; // 是否有权利\r\n        uint vote;   // 投票\r\n    }\r\n    \r\n\r\n    // 存储投票\r\n    mapping(address => Voter) public voters;\r\n\r\n    // 储存地址\r\n    address[] public addresss;\r\n\r\n    // 存储候选人\r\n    Candidate[] public Candidates;\r\n    \r\n    // 存储胜利者\r\n    uint[] public winningCandidates;\r\n\r\n    string[] public winningName;\r\n\r\n    // 如果出现票数相同现象\r\n    \r\n\r\n\r\n    // 根据给定候选人创建投票系统\r\n    constructor() public {\r\n        host = msg.sender;\r\n        \r\n    }\r\n\r\n    function addCandidate(string memory CandidateName,string memory hisspeak) public {\r\n        // 仅主持人可以添加\r\n        require(msg.sender == host,\"ClassBallot 50 failed\");\r\n        Candidates.push(Candidate({name: CandidateName, voteCount: 0, speak: hisspeak}));\r\n\r\n    }\r\n\r\n \r\n\r\n\r\n\r\n    // 为账户添加投票授权\r\n    function giveRightToVote(address voter) public {\r\n        // 仅主持人可以授权\r\n        require(msg.sender == host,\"ClassBallot 62 failed\");\r\n        require(!voters[voter].voted,\"ClassBallot 63 failed\");\r\n        require(!voters[voter].authorize,\"ClassBallot 64 failed\");\r\n\r\n        addresss.push(voter);\r\n        voters[voter].authorize = true;\r\n    }\r\n\r\n    // 为候选人投票\r\n    function vote(uint candidate) public {\r\n        Voter storage sender = voters[msg.sender];\r\n        // 第一次投票\r\n        require(!sender.voted,\"ClassBallot 74 failed\");\r\n        // 拥有授权\r\n        require(sender.authorize,\"ClassBallot 76 failed\");\r\n       \r\n\r\n        sender.voted = true;\r\n        sender.vote = candidate;\r\n\r\n        Candidates[candidate].voteCount += 1;\r\n    }\r\n\r\n    // 计算获选人\r\n    function winningCandidate() public {  \r\n\r\n        uint winningVoteCount = 0;\r\n        uint size = Candidates.length;\r\n        delete winningCandidates;\r\n        for (uint i = 0; i < size; i++) {\r\n            if (Candidates[i].voteCount > winningVoteCount) {\r\n                winningVoteCount = Candidates[i].voteCount;\r\n            }\r\n        }\r\n        for (uint t = 0; t < size; t++) {\r\n            if (Candidates[t].voteCount == winningVoteCount) {\r\n                winningCandidates.push(t);\r\n                winningName.push(Candidates[t].name);\r\n            }\r\n        }\r\n        if (winningName.length > 1) {\r\n            for (uint m = 0; m < addresss.length; m++) {\r\n                voters[addresss[m]].voted = false;\r\n            }\r\n            delete Candidates;\r\n        }\r\n    }\r\n\r\n    //出现票数相同现象再次计算\r\n    function winnersSpeak(string memory newspeak) public {  \r\n        require (winningCandidates.length > 1,\"ClassBallot 111 failed\"); \r\n        \r\n        for (uint n = 0; n < winningName.length; n++) {\r\n            Candidates.push(Candidate({name: winningName[n], voteCount: 0, speak: newspeak}));\r\n        }\r\n\r\n        \r\n    }\r\n\r\n\r\n}\r\n//['wang','zhang','li','feng']",
  "sourcePath": "C:\\Users\\wang\\Desktop\\project\\contracts\\ClassBallot.sol",
  "compiler": {
    "name": "solc",
    "version": "0.4.24+commit.e67f0147.Emscripten.clang"
  },
  "schemaVersion": "2.0.0",
  "updatedAt": "2018-12-24T08:53:57.928Z"
}