{
  "contractName": "ClassBallot",
  "abi": [
    {
      "constant": true,
      "inputs": [
        {
          "name": "",
          "type": "uint256"
        }
      ],
      "name": "winningName",
      "outputs": [
        {
          "name": "",
          "type": "string"
        }
      ],
      "payable": false,
      "stateMutability": "view",
      "type": "function"
    },
    {
      "constant": true,
      "inputs": [
        {
          "name": "",
          "type": "uint256"
        }
      ],
      "name": "winningCandidates",
      "outputs": [
        {
          "name": "",
          "type": "uint256"
        }
      ],
      "payable": false,
      "stateMutability": "view",
      "type": "function"
    },
    {
      "constant": true,
      "inputs": [
        {
          "name": "",
          "type": "uint256"
        }
      ],
      "name": "Candidates",
      "outputs": [
        {
          "name": "name",
          "type": "string"
        },
        {
          "name": "voteCount",
          "type": "uint256"
        },
        {
          "name": "speak",
          "type": "string"
        }
      ],
      "payable": false,
      "stateMutability": "view",
      "type": "function"
    },
    {
      "constant": true,
      "inputs": [
        {
          "name": "",
          "type": "uint256"
        }
      ],
      "name": "addresss",
      "outputs": [
        {
          "name": "",
          "type": "address"
        }
      ],
      "payable": false,
      "stateMutability": "view",
      "type": "function"
    },
    {
      "constant": true,
      "inputs": [
        {
          "name": "",
          "type": "address"
        }
      ],
      "name": "voters",
      "outputs": [
        {
          "name": "voted",
          "type": "bool"
        },
        {
          "name": "authorize",
          "type": "bool"
        },
        {
          "name": "vote",
          "type": "uint256"
        }
      ],
      "payable": false,
      "stateMutability": "view",
      "type": "function"
    },
    {
      "constant": true,
      "inputs": [],
      "name": "host",
      "outputs": [
        {
          "name": "",
          "type": "address"
        }
      ],
      "payable": false,
      "stateMutability": "view",
      "type": "function"
    },
    {
      "inputs": [],
      "payable": false,
      "stateMutability": "nonpayable",
      "type": "constructor"
    },
    {
      "anonymous": false,
      "inputs": [
        {
          "indexed": false,
          "name": "name",
          "type": "string"
        },
        {
          "indexed": false,
          "name": "length",
          "type": "uint256"
        }
      ],
      "name": "transfer",
      "type": "event"
    },
    {
      "constant": false,
      "inputs": [
        {
          "name": "CandidateName",
          "type": "string"
        },
        {
          "name": "hisspeak",
          "type": "string"
        }
      ],
      "name": "addCandidate",
      "outputs": [],
      "payable": false,
      "stateMutability": "nonpayable",
      "type": "function"
    },
    {
      "constant": true,
      "inputs": [],
      "name": "getNum",
      "outputs": [
        {
          "name": "num",
          "type": "uint256"
        }
      ],
      "payable": false,
      "stateMutability": "view",
      "type": "function"
    },
    {
      "constant": true,
      "inputs": [
        {
          "name": "i",
          "type": "uint256"
        }
      ],
      "name": "getCandidate",
      "outputs": [
        {
          "name": "CandidateName",
          "type": "string"
        }
      ],
      "payable": false,
      "stateMutability": "view",
      "type": "function"
    },
    {
      "constant": false,
      "inputs": [
        {
          "name": "voter",
          "type": "address"
        }
      ],
      "name": "giveRightToVote",
      "outputs": [],
      "payable": false,
      "stateMutability": "nonpayable",
      "type": "function"
    },
    {
      "constant": false,
      "inputs": [
        {
          "name": "candidate",
          "type": "uint256"
        }
      ],
      "name": "vote",
      "outputs": [],
      "payable": false,
      "stateMutability": "nonpayable",
      "type": "function"
    },
    {
      "constant": false,
      "inputs": [],
      "name": "winningCandidate",
      "outputs": [],
      "payable": false,
      "stateMutability": "nonpayable",
      "type": "function"
    },
    {
      "constant": true,
      "inputs": [],
      "name": "getWinner",
      "outputs": [
        {
          "name": "name",
          "type": "string"
        }
      ],
      "payable": false,
      "stateMutability": "view",
      "type": "function"
    },
    {
      "constant": true,
      "inputs": [],
      "name": "getWinNum",
      "outputs": [
        {
          "name": "num",
          "type": "uint256"
        }
      ],
      "payable": false,
      "stateMutability": "view",
      "type": "function"
    },
    {
      "constant": false,
      "inputs": [],
      "name": "winnersVote",
      "outputs": [],
      "payable": false,
      "stateMutability": "nonpayable",
      "type": "function"
    },
    {
      "constant": false,
      "inputs": [],
      "name": "reset",
      "outputs": [],
      "payable": false,
      "stateMutability": "nonpayable",
      "type": "function"
    }
  ],
  "bytecode": "0x608060405234801561001057600080fd5b50336000806101000a81548173ffffffffffffffffffffffffffffffffffffffff021916908373ffffffffffffffffffffffffffffffffffffffff160217905550611c68806100606000396000f3006080604052600436106100e6576000357c0100000000000000000000000000000000000000000000000000000000900463ffffffff1680630121b93f146100eb5780630e794b87146101185780631fe447d7146101be57806326541b56146101ff578063290e9212146102ae57806331c6093e146103c757806335b8e820146103de5780633c6d31b01461048457806367e0badb146104af5780638e7ea5b2146104da5780638fb1c3181461056a5780639e7b8d61146105d7578063a3ec138d1461061a578063d28178d714610687578063d826f88f1461069e578063f437bc59146106b5575b600080fd5b3480156100f757600080fd5b506101166004803603810190808035906020019092919050505061070c565b005b34801561012457600080fd5b50610143600480360381019080803590602001909291905050506108b5565b6040518080602001828103825283818151815260200191508051906020019080838360005b83811015610183578082015181840152602081019050610168565b50505050905090810190601f1680156101b05780820380516001836020036101000a031916815260200191505b509250505060405180910390f35b3480156101ca57600080fd5b506101e960048036038101908080359060200190929190505050610970565b6040518082815260200191505060405180910390f35b34801561020b57600080fd5b506102ac600480360381019080803590602001908201803590602001908080601f0160208091040260200160405190810160405280939291908181526020018383808284378201915050505050509192919290803590602001908201803590602001908080601f0160208091040260200160405190810160405280939291908181526020018383808284378201915050505050509192919290505050610993565b005b3480156102ba57600080fd5b506102d960048036038101908080359060200190929190505050610bd9565b604051808060200184815260200180602001838103835286818151815260200191508051906020019080838360005b83811015610323578082015181840152602081019050610308565b50505050905090810190601f1680156103505780820380516001836020036101000a031916815260200191505b50838103825284818151815260200191508051906020019080838360005b8381101561038957808201518184015260208101905061036e565b50505050905090810190601f1680156103b65780820380516001836020036101000a031916815260200191505b509550505050505060405180910390f35b3480156103d357600080fd5b506103dc610d42565b005b3480156103ea57600080fd5b5061040960048036038101908080359060200190929190505050610f35565b6040518080602001828103825283818151815260200191508051906020019080838360005b8381101561044957808201518184015260208101905061042e565b50505050905090810190601f1680156104765780820380516001836020036101000a031916815260200191505b509250505060405180910390f35b34801561049057600080fd5b50610499611073565b6040518082815260200191505060405180910390f35b3480156104bb57600080fd5b506104c4611080565b6040518082815260200191505060405180910390f35b3480156104e657600080fd5b506104ef61108d565b6040518080602001828103825283818151815260200191508051906020019080838360005b8381101561052f578082015181840152602081019050610514565b50505050905090810190601f16801561055c5780820380516001836020036101000a031916815260200191505b509250505060405180910390f35b34801561057657600080fd5b5061059560048036038101908080359060200190929190505050611206565b604051808273ffffffffffffffffffffffffffffffffffffffff1673ffffffffffffffffffffffffffffffffffffffff16815260200191505060405180910390f35b3480156105e357600080fd5b50610618600480360381019080803573ffffffffffffffffffffffffffffffffffffffff169060200190929190505050611244565b005b34801561062657600080fd5b5061065b600480360381019080803573ffffffffffffffffffffffffffffffffffffffff169060200190929190505050611555565b604051808415151515815260200183151515158152602001828152602001935050505060405180910390f35b34801561069357600080fd5b5061069c611599565b005b3480156106aa57600080fd5b506106b36117de565b005b3480156106c157600080fd5b506106ca6119a9565b604051808273ffffffffffffffffffffffffffffffffffffffff1673ffffffffffffffffffffffffffffffffffffffff16815260200191505060405180910390f35b6000600160003373ffffffffffffffffffffffffffffffffffffffff1673ffffffffffffffffffffffffffffffffffffffff16815260200190815260200160002090508060000160009054906101000a900460ff161515156107d6576040517f08c379a00000000000000000000000000000000000000000000000000000000081526004018080602001828103825260158152602001807f436c61737342616c6c6f74203734206661696c6564000000000000000000000081525060200191505060405180910390fd5b8060000160019054906101000a900460ff16151561085c576040517f08c379a00000000000000000000000000000000000000000000000000000000081526004018080602001828103825260158152602001807f436c61737342616c6c6f74203736206661696c6564000000000000000000000081525060200191505060405180910390fd5b60018160000160006101000a81548160ff021916908315150217905550818160010181905550600160038381548110151561089357fe5b9060005260206000209060030201600101600082825401925050819055505050565b6005818154811015156108c457fe5b906000526020600020016000915090508054600181600116156101000203166002900480601f0160208091040260200160405190810160405280929190818152602001828054600181600116156101000203166002900480156109685780601f1061093d57610100808354040283529160200191610968565b820191906000526020600020905b81548152906001019060200180831161094b57829003601f168201915b505050505081565b60048181548110151561097f57fe5b906000526020600020016000915090505481565b6000809054906101000a900473ffffffffffffffffffffffffffffffffffffffff1673ffffffffffffffffffffffffffffffffffffffff163373ffffffffffffffffffffffffffffffffffffffff16141515610a57576040517f08c379a00000000000000000000000000000000000000000000000000000000081526004018080602001828103825260158152602001807f436c61737342616c6c6f74203530206661696c6564000000000000000000000081525060200191505060405180910390fd5b60036060604051908101604052808481526020016000815260200183815250908060018154018082558091505090600182039060005260206000209060030201600090919290919091506000820151816000019080519060200190610abd9291906119ce565b50602082015181600101556040820151816002019080519060200190610ae49291906119ce565b505050507f12cb70c79b0b4eabed9813a0117f1452c518e21ba54c8b4c45a5119648f222736003600160038054905003815481101515610b2057fe5b90600052602060002090600302016000016003805490506040518080602001838152602001828103825284818154600181600116156101000203166002900481526020019150805460018160011615610100020316600290048015610bc65780601f10610b9b57610100808354040283529160200191610bc6565b820191906000526020600020905b815481529060010190602001808311610ba957829003601f168201915b5050935050505060405180910390a15050565b600381815481101515610be857fe5b9060005260206000209060030201600091509050806000018054600181600116156101000203166002900480601f016020809104026020016040519081016040528092919081815260200182805460018160011615610100020316600290048015610c945780601f10610c6957610100808354040283529160200191610c94565b820191906000526020600020905b815481529060010190602001808311610c7757829003601f168201915b505050505090806001015490806002018054600181600116156101000203166002900480601f016020809104026020016040519081016040528092919081815260200182805460018160011615610100020316600290048015610d385780601f10610d0d57610100808354040283529160200191610d38565b820191906000526020600020905b815481529060010190602001808311610d1b57829003601f168201915b5050505050905083565b60006001600480549050111515610dc1576040517f08c379a00000000000000000000000000000000000000000000000000000000081526004018080602001828103825260168152602001807f436c61737342616c6c6f7420313131206661696c65640000000000000000000081525060200191505060405180910390fd5b600090505b600580549050811015610f32576003606060405190810160405280600584815481101515610df057fe5b906000526020600020018054600181600116156101000203166002900480601f016020809104026020016040519081016040528092919081815260200182805460018160011615610100020316600290048015610e8e5780601f10610e6357610100808354040283529160200191610e8e565b820191906000526020600020905b815481529060010190602001808311610e7157829003601f168201915b50505050508152602001600081526020016020604051908101604052806000815250815250908060018154018082558091505090600182039060005260206000209060030201600090919290919091506000820151816000019080519060200190610efa9291906119ce565b50602082015181600101556040820151816002019080519060200190610f219291906119ce565b505050508080600101915050610dc6565b50565b606060038054905082101515610fb3576040517f08c379a00000000000000000000000000000000000000000000000000000000081526004018080602001828103825260158152602001807f436c61737342616c6c6f74203631206661696c6564000000000000000000000081525060200191505060405180910390fd5b600382815481101515610fc257fe5b90600052602060002090600302016000018054600181600116156101000203166002900480601f0160208091040260200160405190810160405280929190818152602001828054600181600116156101000203166002900480156110675780601f1061103c57610100808354040283529160200191611067565b820191906000526020600020905b81548152906001019060200180831161104a57829003601f168201915b50505050509050919050565b6000600580549050905090565b6000600380549050905090565b60606005805490506001141561115757600560008154811015156110ad57fe5b906000526020600020018054600181600116156101000203166002900480601f01602080910402602001604051908101604052809291908181526020018280546001816001161561010002031660029004801561114b5780601f106111205761010080835404028352916020019161114b565b820191906000526020600020905b81548152906001019060200180831161112e57829003601f168201915b50505050509050611203565b600580549050600014156111a2576040805190810160405280600781526020017f556e6b6e6f776e000000000000000000000000000000000000000000000000008152509050611202565b606060405190810160405280602581526020017f4d756c7469706c652077696e6e6572732c206e65656420746f20766f7465206181526020017f6761696e2100000000000000000000000000000000000000000000000000000081525090505b5b90565b60028181548110151561121557fe5b906000526020600020016000915054906101000a900473ffffffffffffffffffffffffffffffffffffffff1681565b6000809054906101000a900473ffffffffffffffffffffffffffffffffffffffff1673ffffffffffffffffffffffffffffffffffffffff163373ffffffffffffffffffffffffffffffffffffffff16141515611308576040517f08c379a00000000000000000000000000000000000000000000000000000000081526004018080602001828103825260158152602001807f436c61737342616c6c6f74203632206661696c6564000000000000000000000081525060200191505060405180910390fd5b600160008273ffffffffffffffffffffffffffffffffffffffff1673ffffffffffffffffffffffffffffffffffffffff16815260200190815260200160002060000160009054906101000a900460ff161515156113cd576040517f08c379a00000000000000000000000000000000000000000000000000000000081526004018080602001828103825260158152602001807f436c61737342616c6c6f74203633206661696c6564000000000000000000000081525060200191505060405180910390fd5b600160008273ffffffffffffffffffffffffffffffffffffffff1673ffffffffffffffffffffffffffffffffffffffff16815260200190815260200160002060000160019054906101000a900460ff16151515611492576040517f08c379a00000000000000000000000000000000000000000000000000000000081526004018080602001828103825260158152602001807f436c61737342616c6c6f74203634206661696c6564000000000000000000000081525060200191505060405180910390fd5b60028190806001815401808255809150509060018203906000526020600020016000909192909190916101000a81548173ffffffffffffffffffffffffffffffffffffffff021916908373ffffffffffffffffffffffffffffffffffffffff1602179055505060018060008373ffffffffffffffffffffffffffffffffffffffff1673ffffffffffffffffffffffffffffffffffffffff16815260200190815260200160002060000160016101000a81548160ff02191690831515021790555050565b60016020528060005260406000206000915090508060000160009054906101000a900460ff16908060000160019054906101000a900460ff16908060010154905083565b60008060008060008094506003805490509350600460006115ba9190611a4e565b600560006115c89190611a6f565b600092505b8383101561162e57846003848154811015156115e557fe5b90600052602060002090600302016001015411156116215760038381548110151561160c57fe5b90600052602060002090600302016001015494505b82806001019350506115cd565b600091505b83821015611707578460038381548110151561164b57fe5b90600052602060002090600302016001015414156116fa57600482908060018154018082558091505090600182039060005260206000200160009091929091909150555060056003838154811015156116a057fe5b906000526020600020906003020160000190806001815401808255809150509060018203906000526020600020016000909192909190915090805460018160011615610100020316600290046116f7929190611a90565b50505b8180600101925050611633565b600160058054905011156117d757600090505b6002805490508110156117c85760006001600060028481548110151561173c57fe5b9060005260206000200160009054906101000a900473ffffffffffffffffffffffffffffffffffffffff1673ffffffffffffffffffffffffffffffffffffffff1673ffffffffffffffffffffffffffffffffffffffff16815260200190815260200160002060000160006101000a81548160ff021916908315150217905550808060010191505061171a565b600360006117d69190611b17565b5b5050505050565b60008060009054906101000a900473ffffffffffffffffffffffffffffffffffffffff1673ffffffffffffffffffffffffffffffffffffffff163373ffffffffffffffffffffffffffffffffffffffff161415156118a4576040517f08c379a00000000000000000000000000000000000000000000000000000000081526004018080602001828103825260168152602001807f436c61737342616c6c6f7420313230206661696c65640000000000000000000081525060200191505060405180910390fd5b600090505b60028054905081101561196e57600160006002838154811015156118c957fe5b9060005260206000200160009054906101000a900473ffffffffffffffffffffffffffffffffffffffff1673ffffffffffffffffffffffffffffffffffffffff1673ffffffffffffffffffffffffffffffffffffffff168152602001908152602001600020600080820160006101000a81549060ff02191690556000820160016101000a81549060ff02191690556001820160009055505080806001019150506118a9565b6002600061197c9190611b3b565b6004600061198a9190611a4e565b600560006119989190611a6f565b600360006119a69190611b17565b50565b6000809054906101000a900473ffffffffffffffffffffffffffffffffffffffff1681565b828054600181600116156101000203166002900490600052602060002090601f016020900481019282601f10611a0f57805160ff1916838001178555611a3d565b82800160010185558215611a3d579182015b82811115611a3c578251825591602001919060010190611a21565b5b509050611a4a9190611b5c565b5090565b5080546000825590600052602060002090810190611a6c9190611b5c565b50565b5080546000825590600052602060002090810190611a8d9190611b81565b50565b828054600181600116156101000203166002900490600052602060002090601f016020900481019282601f10611ac95780548555611b06565b82800160010185558215611b0657600052602060002091601f016020900482015b82811115611b05578254825591600101919060010190611aea565b5b509050611b139190611b5c565b5090565b5080546000825560030290600052602060002090810190611b389190611bad565b50565b5080546000825590600052602060002090810190611b599190611b5c565b50565b611b7e91905b80821115611b7a576000816000905550600101611b62565b5090565b90565b611baa91905b80821115611ba65760008181611b9d9190611bf4565b50600101611b87565b5090565b90565b611bf191905b80821115611bed5760008082016000611bcc9190611bf4565b6001820160009055600282016000611be49190611bf4565b50600301611bb3565b5090565b90565b50805460018160011615610100020316600290046000825580601f10611c1a5750611c39565b601f016020900490600052602060002090810190611c389190611b5c565b5b505600a165627a7a72305820d776d1479c65240a1d175d40f3e3f7920db51aafa2d801972a2367efea6040770029",
  "source": "pragma solidity ^0.4.17;\r\n\r\n// 班级投票系统\r\ncontract ClassBallot {\r\n\r\n    // 主持人\r\n    address public host;\r\n\r\n    // 候选人\r\n    struct Candidate {\r\n        string name;   // name\r\n        uint voteCount; // votes number\r\n        string speak;\r\n    }\r\n    // 投票\r\n    struct Voter {\r\n        bool voted;  // 是否投过票\r\n        bool authorize; // 是否有权利\r\n        uint vote;   // 投票\r\n    }\r\n    \r\n\r\n    // 存储投票\r\n    mapping(address => Voter) public voters;\r\n\r\n    // 储存地址\r\n    address[] public addresss;\r\n \r\n    // 存储候选人\r\n    Candidate[] public Candidates;\r\n    \r\n    // 存储胜利者\r\n    uint[] public winningCandidates;\r\n\r\n    string[] public winningName;\r\n\r\n    // 如果出现票数相同现象\r\n    \r\n    event transfer(string name, uint length);\r\n\r\n\r\n    // 构造函数\r\n    constructor() public {\r\n        host=msg.sender;\r\n    }\r\n\r\n\r\n    function addCandidate(string memory CandidateName,string memory hisspeak) public {\r\n        // 仅主持人可以添加\r\n        require(msg.sender == host,\"ClassBallot 50 failed\");\r\n        Candidates.push(Candidate({name: CandidateName, voteCount: 0, speak: hisspeak}));\r\n        emit transfer(Candidates[Candidates.length-1].name,Candidates.length);\r\n    }\r\n\r\n    function getNum() public view returns (uint num){\r\n        num = Candidates.length;\r\n    }\r\n\r\n    function getCandidate(uint i) public view returns (string memory CandidateName){\r\n        require(i < Candidates.length,\"ClassBallot 61 failed\");\r\n        CandidateName = Candidates[i].name;\r\n    }\r\n\r\n    \r\n\r\n \r\n\r\n\r\n\r\n    // 为账户添加投票授权\r\n    function giveRightToVote(address voter) public {\r\n        // 仅主持人可以授权\r\n        require(msg.sender == host,\"ClassBallot 62 failed\");\r\n        require(!voters[voter].voted,\"ClassBallot 63 failed\");\r\n        require(!voters[voter].authorize,\"ClassBallot 64 failed\");\r\n\r\n        addresss.push(voter);\r\n        voters[voter].authorize = true;\r\n    }\r\n\r\n    // 为候选人投票\r\n    function vote(uint candidate) public {\r\n        Voter storage sender = voters[msg.sender];\r\n        // 第一次投票\r\n        require(!sender.voted,\"ClassBallot 74 failed\");\r\n        // 拥有授权\r\n        require(sender.authorize,\"ClassBallot 76 failed\");\r\n       \r\n        sender.voted = true;\r\n        sender.vote = candidate;\r\n\r\n        Candidates[candidate].voteCount += 1;\r\n    }\r\n\r\n    // 计算获选人\r\n    function winningCandidate() public {  \r\n\r\n        uint winningVoteCount = 0;\r\n        uint size = Candidates.length;\r\n        delete winningCandidates;\r\n        delete winningName;\r\n        for (uint i = 0; i < size; i++) {\r\n            if (Candidates[i].voteCount > winningVoteCount) {\r\n                winningVoteCount = Candidates[i].voteCount;\r\n            }\r\n        }\r\n        for (uint t = 0; t < size; t++) {\r\n            if (Candidates[t].voteCount == winningVoteCount) {\r\n                winningCandidates.push(t);\r\n                winningName.push(Candidates[t].name);\r\n            }\r\n        }\r\n        if (winningName.length > 1) {\r\n            for (uint m = 0; m < addresss.length; m++) {\r\n                voters[addresss[m]].voted = false;\r\n            }\r\n            delete Candidates;\r\n        }\r\n    }   \r\n\r\n    \r\n    function getWinner() public view returns (string memory name){\r\n        if (1 == winningName.length){\r\n            name = winningName[0];\r\n        }\r\n        else if(0 == winningName.length){\r\n            name = \"Unknown\";\r\n        }\r\n        else{\r\n            name = \"Multiple winners, need to vote again!\";\r\n        }\r\n\r\n        \r\n    }\r\n    // 首次获胜者数量\r\n    function getWinNum() public view returns (uint num){\r\n        num = winningName.length;\r\n    }\r\n\r\n\r\n\r\n\r\n    //出现票数相同现象再次计算\r\n    function winnersVote() public {  \r\n        require (winningCandidates.length > 1,\"ClassBallot 111 failed\"); \r\n        \r\n        for (uint n = 0; n < winningName.length; n++) {\r\n            Candidates.push(Candidate({name: winningName[n], voteCount: 0, speak: \"\"}));\r\n        }\r\n  \r\n    }\r\n\r\n    function reset() public {  \r\n        require(msg.sender == host,\"ClassBallot 120 failed\"); \r\n        for (uint n = 0; n < addresss.length; n++) { \r\n           delete voters[addresss[n]];\r\n        }\r\n        delete addresss;\r\n        delete winningCandidates;\r\n        delete winningName;\r\n        delete Candidates;\r\n  \r\n    }\r\n\r\n\r\n\r\n}\r\n//['wang','zhang','li','feng']",
  "sourcePath": "D:\\Github\\ClassBallot\\Ballot\\contracts\\ClassBallot.sol",
  "compiler": {
    "name": "solc",
    "version": "0.4.24+commit.e67f0147.Emscripten.clang"
  },
  "schemaVersion": "2.0.0",
  "updatedAt": "2018-12-30T05:16:21.693Z"
}